{
  "_format": "hh-sol-artifact-1",
  "contractName": "NextiaToken",
  "sourceName": "contracts/NextiaToken.sol",
  "abi": [
    {
      "inputs": [
        {
          "internalType": "uint256",
          "name": "initialSupply",
          "type": "uint256"
        },
        {
          "internalType": "address",
          "name": "initialOwner",
          "type": "address"
        }
      ],
      "stateMutability": "nonpayable",
      "type": "constructor"
    },
    {
      "inputs": [
        {
          "internalType": "address",
          "name": "spender",
          "type": "address"
        },
        {
          "internalType": "uint256",
          "name": "allowance",
          "type": "uint256"
        },
        {
          "internalType": "uint256",
          "name": "needed",
          "type": "uint256"
        }
      ],
      "name": "ERC20InsufficientAllowance",
      "type": "error"
    },
    {
      "inputs": [
        {
          "internalType": "address",
          "name": "sender",
          "type": "address"
        },
        {
          "internalType": "uint256",
          "name": "balance",
          "type": "uint256"
        },
        {
          "internalType": "uint256",
          "name": "needed",
          "type": "uint256"
        }
      ],
      "name": "ERC20InsufficientBalance",
      "type": "error"
    },
    {
      "inputs": [
        {
          "internalType": "address",
          "name": "approver",
          "type": "address"
        }
      ],
      "name": "ERC20InvalidApprover",
      "type": "error"
    },
    {
      "inputs": [
        {
          "internalType": "address",
          "name": "receiver",
          "type": "address"
        }
      ],
      "name": "ERC20InvalidReceiver",
      "type": "error"
    },
    {
      "inputs": [
        {
          "internalType": "address",
          "name": "sender",
          "type": "address"
        }
      ],
      "name": "ERC20InvalidSender",
      "type": "error"
    },
    {
      "inputs": [
        {
          "internalType": "address",
          "name": "spender",
          "type": "address"
        }
      ],
      "name": "ERC20InvalidSpender",
      "type": "error"
    },
    {
      "inputs": [],
      "name": "EnforcedPause",
      "type": "error"
    },
    {
      "inputs": [],
      "name": "ExpectedPause",
      "type": "error"
    },
    {
      "inputs": [
        {
          "internalType": "address",
          "name": "owner",
          "type": "address"
        }
      ],
      "name": "OwnableInvalidOwner",
      "type": "error"
    },
    {
      "inputs": [
        {
          "internalType": "address",
          "name": "account",
          "type": "address"
        }
      ],
      "name": "OwnableUnauthorizedAccount",
      "type": "error"
    },
    {
      "anonymous": false,
      "inputs": [
        {
          "indexed": true,
          "internalType": "address",
          "name": "owner",
          "type": "address"
        },
        {
          "indexed": true,
          "internalType": "address",
          "name": "spender",
          "type": "address"
        },
        {
          "indexed": false,
          "internalType": "uint256",
          "name": "value",
          "type": "uint256"
        }
      ],
      "name": "Approval",
      "type": "event"
    },
    {
      "anonymous": false,
      "inputs": [
        {
          "indexed": true,
          "internalType": "address",
          "name": "previousOwner",
          "type": "address"
        },
        {
          "indexed": true,
          "internalType": "address",
          "name": "newOwner",
          "type": "address"
        }
      ],
      "name": "OwnershipTransferred",
      "type": "event"
    },
    {
      "anonymous": false,
      "inputs": [
        {
          "indexed": false,
          "internalType": "address",
          "name": "account",
          "type": "address"
        }
      ],
      "name": "Paused",
      "type": "event"
    },
    {
      "anonymous": false,
      "inputs": [
        {
          "indexed": true,
          "internalType": "address",
          "name": "from",
          "type": "address"
        },
        {
          "indexed": true,
          "internalType": "address",
          "name": "to",
          "type": "address"
        },
        {
          "indexed": false,
          "internalType": "uint256",
          "name": "value",
          "type": "uint256"
        }
      ],
      "name": "Transfer",
      "type": "event"
    },
    {
      "anonymous": false,
      "inputs": [
        {
          "indexed": false,
          "internalType": "address",
          "name": "account",
          "type": "address"
        }
      ],
      "name": "Unpaused",
      "type": "event"
    },
    {
      "inputs": [
        {
          "internalType": "address",
          "name": "owner",
          "type": "address"
        },
        {
          "internalType": "address",
          "name": "spender",
          "type": "address"
        }
      ],
      "name": "allowance",
      "outputs": [
        {
          "internalType": "uint256",
          "name": "",
          "type": "uint256"
        }
      ],
      "stateMutability": "view",
      "type": "function"
    },
    {
      "inputs": [
        {
          "internalType": "address",
          "name": "spender",
          "type": "address"
        },
        {
          "internalType": "uint256",
          "name": "value",
          "type": "uint256"
        }
      ],
      "name": "approve",
      "outputs": [
        {
          "internalType": "bool",
          "name": "",
          "type": "bool"
        }
      ],
      "stateMutability": "nonpayable",
      "type": "function"
    },
    {
      "inputs": [
        {
          "internalType": "address",
          "name": "account",
          "type": "address"
        }
      ],
      "name": "balanceOf",
      "outputs": [
        {
          "internalType": "uint256",
          "name": "",
          "type": "uint256"
        }
      ],
      "stateMutability": "view",
      "type": "function"
    },
    {
      "inputs": [
        {
          "internalType": "uint256",
          "name": "value",
          "type": "uint256"
        }
      ],
      "name": "burn",
      "outputs": [],
      "stateMutability": "nonpayable",
      "type": "function"
    },
    {
      "inputs": [
        {
          "internalType": "address",
          "name": "account",
          "type": "address"
        },
        {
          "internalType": "uint256",
          "name": "value",
          "type": "uint256"
        }
      ],
      "name": "burnFrom",
      "outputs": [],
      "stateMutability": "nonpayable",
      "type": "function"
    },
    {
      "inputs": [],
      "name": "decimals",
      "outputs": [
        {
          "internalType": "uint8",
          "name": "",
          "type": "uint8"
        }
      ],
      "stateMutability": "view",
      "type": "function"
    },
    {
      "inputs": [],
      "name": "name",
      "outputs": [
        {
          "internalType": "string",
          "name": "",
          "type": "string"
        }
      ],
      "stateMutability": "view",
      "type": "function"
    },
    {
      "inputs": [],
      "name": "owner",
      "outputs": [
        {
          "internalType": "address",
          "name": "",
          "type": "address"
        }
      ],
      "stateMutability": "view",
      "type": "function"
    },
    {
      "inputs": [],
      "name": "pause",
      "outputs": [],
      "stateMutability": "nonpayable",
      "type": "function"
    },
    {
      "inputs": [],
      "name": "paused",
      "outputs": [
        {
          "internalType": "bool",
          "name": "",
          "type": "bool"
        }
      ],
      "stateMutability": "view",
      "type": "function"
    },
    {
      "inputs": [],
      "name": "renounceOwnership",
      "outputs": [],
      "stateMutability": "nonpayable",
      "type": "function"
    },
    {
      "inputs": [],
      "name": "symbol",
      "outputs": [
        {
          "internalType": "string",
          "name": "",
          "type": "string"
        }
      ],
      "stateMutability": "view",
      "type": "function"
    },
    {
      "inputs": [],
      "name": "totalSupply",
      "outputs": [
        {
          "internalType": "uint256",
          "name": "",
          "type": "uint256"
        }
      ],
      "stateMutability": "view",
      "type": "function"
    },
    {
      "inputs": [
        {
          "internalType": "address",
          "name": "to",
          "type": "address"
        },
        {
          "internalType": "uint256",
          "name": "value",
          "type": "uint256"
        }
      ],
      "name": "transfer",
      "outputs": [
        {
          "internalType": "bool",
          "name": "",
          "type": "bool"
        }
      ],
      "stateMutability": "nonpayable",
      "type": "function"
    },
    {
      "inputs": [
        {
          "internalType": "address",
          "name": "from",
          "type": "address"
        },
        {
          "internalType": "address",
          "name": "to",
          "type": "address"
        },
        {
          "internalType": "uint256",
          "name": "value",
          "type": "uint256"
        }
      ],
      "name": "transferFrom",
      "outputs": [
        {
          "internalType": "bool",
          "name": "",
          "type": "bool"
        }
      ],
      "stateMutability": "nonpayable",
      "type": "function"
    },
    {
      "inputs": [
        {
          "internalType": "address",
          "name": "newOwner",
          "type": "address"
        }
      ],
      "name": "transferOwnership",
      "outputs": [],
      "stateMutability": "nonpayable",
      "type": "function"
    },
    {
      "inputs": [],
      "name": "unpause",
      "outputs": [],
      "stateMutability": "nonpayable",
      "type": "function"
    }
  ],
  "bytecode": "0x60806040523480156200001157600080fd5b5060405162001eff38038062001eff833981810160405281019062000037919062000634565b806040518060400160405280600b81526020017f4e6578746961546f6b656e0000000000000000000000000000000000000000008152506040518060400160405280600381526020017f4e585400000000000000000000000000000000000000000000000000000000008152508160039081620000b59190620008eb565b508060049081620000c79190620008eb565b505050600073ffffffffffffffffffffffffffffffffffffffff168173ffffffffffffffffffffffffffffffffffffffff16036200013f5760006040517f1e4fbdf7000000000000000000000000000000000000000000000000000000008152600401620001369190620009e3565b60405180910390fd5b62000150816200016b60201b60201c565b506200016381836200023160201b60201c565b505062000ad5565b6000600560019054906101000a900473ffffffffffffffffffffffffffffffffffffffff16905081600560016101000a81548173ffffffffffffffffffffffffffffffffffffffff021916908373ffffffffffffffffffffffffffffffffffffffff1602179055508173ffffffffffffffffffffffffffffffffffffffff168173ffffffffffffffffffffffffffffffffffffffff167f8be0079c531659141344cd1fd0a4f28419497f9722a3daafe3b4186f6b6457e060405160405180910390a35050565b600073ffffffffffffffffffffffffffffffffffffffff168273ffffffffffffffffffffffffffffffffffffffff1603620002a65760006040517fec442f050000000000000000000000000000000000000000000000000000000081526004016200029d9190620009e3565b60405180910390fd5b620002ba60008383620002be60201b60201c565b5050565b620002d1838383620002d660201b60201c565b505050565b620002e6620002fe60201b60201c565b620002f98383836200034860201b60201c565b505050565b6200030e6200057860201b60201c565b1562000346576040517fd93c066500000000000000000000000000000000000000000000000000000000815260040160405180910390fd5b565b600073ffffffffffffffffffffffffffffffffffffffff168373ffffffffffffffffffffffffffffffffffffffff16036200039e57806002600082825462000391919062000a2f565b9250508190555062000474565b60008060008573ffffffffffffffffffffffffffffffffffffffff1673ffffffffffffffffffffffffffffffffffffffff168152602001908152602001600020549050818110156200042d578381836040517fe450d38c000000000000000000000000000000000000000000000000000000008152600401620004249392919062000a7b565b60405180910390fd5b8181036000808673ffffffffffffffffffffffffffffffffffffffff1673ffffffffffffffffffffffffffffffffffffffff16815260200190815260200160002081905550505b600073ffffffffffffffffffffffffffffffffffffffff168273ffffffffffffffffffffffffffffffffffffffff1603620004bf57806002600082825403925050819055506200050c565b806000808473ffffffffffffffffffffffffffffffffffffffff1673ffffffffffffffffffffffffffffffffffffffff168152602001908152602001600020600082825401925050819055505b8173ffffffffffffffffffffffffffffffffffffffff168373ffffffffffffffffffffffffffffffffffffffff167fddf252ad1be2c89b69c2b068fc378daa952ba7f163c4a11628f55a4df523b3ef836040516200056b919062000ab8565b60405180910390a3505050565b6000600560009054906101000a900460ff16905090565b600080fd5b6000819050919050565b620005a98162000594565b8114620005b557600080fd5b50565b600081519050620005c9816200059e565b92915050565b600073ffffffffffffffffffffffffffffffffffffffff82169050919050565b6000620005fc82620005cf565b9050919050565b6200060e81620005ef565b81146200061a57600080fd5b50565b6000815190506200062e8162000603565b92915050565b600080604083850312156200064e576200064d6200058f565b5b60006200065e85828601620005b8565b925050602062000671858286016200061d565b9150509250929050565b600081519050919050565b7f4e487b7100000000000000000000000000000000000000000000000000000000600052604160045260246000fd5b7f4e487b7100000000000000000000000000000000000000000000000000000000600052602260045260246000fd5b60006002820490506001821680620006fd57607f821691505b602082108103620007135762000712620006b5565b5b50919050565b60008190508160005260206000209050919050565b60006020601f8301049050919050565b600082821b905092915050565b6000600883026200077d7fffffffffffffffffffffffffffffffffffffffffffffffffffffffffffffffff826200073e565b6200078986836200073e565b95508019841693508086168417925050509392505050565b6000819050919050565b6000620007cc620007c6620007c08462000594565b620007a1565b62000594565b9050919050565b6000819050919050565b620007e883620007ab565b62000800620007f782620007d3565b8484546200074b565b825550505050565b600090565b6200081762000808565b62000824818484620007dd565b505050565b5b818110156200084c57620008406000826200080d565b6001810190506200082a565b5050565b601f8211156200089b57620008658162000719565b62000870846200072e565b8101602085101562000880578190505b620008986200088f856200072e565b83018262000829565b50505b505050565b600082821c905092915050565b6000620008c060001984600802620008a0565b1980831691505092915050565b6000620008db8383620008ad565b9150826002028217905092915050565b620008f6826200067b565b67ffffffffffffffff81111562000912576200091162000686565b5b6200091e8254620006e4565b6200092b82828562000850565b600060209050601f8311600181146200096357600084156200094e578287015190505b6200095a8582620008cd565b865550620009ca565b601f198416620009738662000719565b60005b828110156200099d5784890151825560018201915060208501945060208101905062000976565b86831015620009bd5784890151620009b9601f891682620008ad565b8355505b6001600288020188555050505b505050505050565b620009dd81620005ef565b82525050565b6000602082019050620009fa6000830184620009d2565b92915050565b7f4e487b7100000000000000000000000000000000000000000000000000000000600052601160045260246000fd5b600062000a3c8262000594565b915062000a498362000594565b925082820190508082111562000a645762000a6362000a00565b5b92915050565b62000a758162000594565b82525050565b600060608201905062000a926000830186620009d2565b62000aa1602083018562000a6a565b62000ab0604083018462000a6a565b949350505050565b600060208201905062000acf600083018462000a6a565b92915050565b61141a8062000ae56000396000f3fe608060405234801561001057600080fd5b506004361061010b5760003560e01c806370a08231116100a25780638da5cb5b116100715780638da5cb5b1461026e57806395d89b411461028c578063a9059cbb146102aa578063dd62ed3e146102da578063f2fde38b1461030a5761010b565b806370a082311461020e578063715018a61461023e57806379cc6790146102485780638456cb59146102645761010b565b8063313ce567116100de578063313ce567146101ac5780633f4ba83a146101ca57806342966c68146101d45780635c975abb146101f05761010b565b806306fdde0314610110578063095ea7b31461012e57806318160ddd1461015e57806323b872dd1461017c575b600080fd5b610118610326565b6040516101259190611041565b60405180910390f35b610148600480360381019061014391906110fc565b6103b8565b6040516101559190611157565b60405180910390f35b6101666103db565b6040516101739190611181565b60405180910390f35b6101966004803603810190610191919061119c565b6103e5565b6040516101a39190611157565b60405180910390f35b6101b4610414565b6040516101c1919061120b565b60405180910390f35b6101d261041d565b005b6101ee60048036038101906101e99190611226565b61042f565b005b6101f8610443565b6040516102059190611157565b60405180910390f35b61022860048036038101906102239190611253565b61045a565b6040516102359190611181565b60405180910390f35b6102466104a2565b005b610262600480360381019061025d91906110fc565b6104b6565b005b61026c6104d6565b005b6102766104e8565b604051610283919061128f565b60405180910390f35b610294610512565b6040516102a19190611041565b60405180910390f35b6102c460048036038101906102bf91906110fc565b6105a4565b6040516102d19190611157565b60405180910390f35b6102f460048036038101906102ef91906112aa565b6105c7565b6040516103019190611181565b60405180910390f35b610324600480360381019061031f9190611253565b61064e565b005b60606003805461033590611319565b80601f016020809104026020016040519081016040528092919081815260200182805461036190611319565b80156103ae5780601f10610383576101008083540402835291602001916103ae565b820191906000526020600020905b81548152906001019060200180831161039157829003601f168201915b5050505050905090565b6000806103c36106d4565b90506103d08185856106dc565b600191505092915050565b6000600254905090565b6000806103f06106d4565b90506103fd8582856106ee565b610408858585610783565b60019150509392505050565b60006012905090565b610425610877565b61042d6108fe565b565b61044061043a6106d4565b82610961565b50565b6000600560009054906101000a900460ff16905090565b60008060008373ffffffffffffffffffffffffffffffffffffffff1673ffffffffffffffffffffffffffffffffffffffff168152602001908152602001600020549050919050565b6104aa610877565b6104b460006109e3565b565b6104c8826104c26106d4565b836106ee565b6104d28282610961565b5050565b6104de610877565b6104e6610aa9565b565b6000600560019054906101000a900473ffffffffffffffffffffffffffffffffffffffff16905090565b60606004805461052190611319565b80601f016020809104026020016040519081016040528092919081815260200182805461054d90611319565b801561059a5780601f1061056f5761010080835404028352916020019161059a565b820191906000526020600020905b81548152906001019060200180831161057d57829003601f168201915b5050505050905090565b6000806105af6106d4565b90506105bc818585610783565b600191505092915050565b6000600160008473ffffffffffffffffffffffffffffffffffffffff1673ffffffffffffffffffffffffffffffffffffffff16815260200190815260200160002060008373ffffffffffffffffffffffffffffffffffffffff1673ffffffffffffffffffffffffffffffffffffffff16815260200190815260200160002054905092915050565b610656610877565b600073ffffffffffffffffffffffffffffffffffffffff168173ffffffffffffffffffffffffffffffffffffffff16036106c85760006040517f1e4fbdf70000000000000000000000000000000000000000000000000000000081526004016106bf919061128f565b60405180910390fd5b6106d1816109e3565b50565b600033905090565b6106e98383836001610b0c565b505050565b60006106fa84846105c7565b90507fffffffffffffffffffffffffffffffffffffffffffffffffffffffffffffffff81101561077d578181101561076d578281836040517ffb8f41b20000000000000000000000000000000000000000000000000000000081526004016107649392919061134a565b60405180910390fd5b61077c84848484036000610b0c565b5b50505050565b600073ffffffffffffffffffffffffffffffffffffffff168373ffffffffffffffffffffffffffffffffffffffff16036107f55760006040517f96c6fd1e0000000000000000000000000000000000000000000000000000000081526004016107ec919061128f565b60405180910390fd5b600073ffffffffffffffffffffffffffffffffffffffff168273ffffffffffffffffffffffffffffffffffffffff16036108675760006040517fec442f0500000000000000000000000000000000000000000000000000000000815260040161085e919061128f565b60405180910390fd5b610872838383610ce3565b505050565b61087f6106d4565b73ffffffffffffffffffffffffffffffffffffffff1661089d6104e8565b73ffffffffffffffffffffffffffffffffffffffff16146108fc576108c06106d4565b6040517f118cdaa70000000000000000000000000000000000000000000000000000000081526004016108f3919061128f565b60405180910390fd5b565b610906610cf3565b6000600560006101000a81548160ff0219169083151502179055507f5db9ee0a495bf2e6ff9c91a7834c1ba4fdd244a5e8aa4e537bd38aeae4b073aa61094a6106d4565b604051610957919061128f565b60405180910390a1565b600073ffffffffffffffffffffffffffffffffffffffff168273ffffffffffffffffffffffffffffffffffffffff16036109d35760006040517f96c6fd1e0000000000000000000000000000000000000000000000000000000081526004016109ca919061128f565b60405180910390fd5b6109df82600083610ce3565b5050565b6000600560019054906101000a900473ffffffffffffffffffffffffffffffffffffffff16905081600560016101000a81548173ffffffffffffffffffffffffffffffffffffffff021916908373ffffffffffffffffffffffffffffffffffffffff1602179055508173ffffffffffffffffffffffffffffffffffffffff168173ffffffffffffffffffffffffffffffffffffffff167f8be0079c531659141344cd1fd0a4f28419497f9722a3daafe3b4186f6b6457e060405160405180910390a35050565b610ab1610d33565b6001600560006101000a81548160ff0219169083151502179055507f62e78cea01bee320cd4e420270b5ea74000d11b0c9f74754ebdbfc544b05a258610af56106d4565b604051610b02919061128f565b60405180910390a1565b600073ffffffffffffffffffffffffffffffffffffffff168473ffffffffffffffffffffffffffffffffffffffff1603610b7e5760006040517fe602df05000000000000000000000000000000000000000000000000000000008152600401610b75919061128f565b60405180910390fd5b600073ffffffffffffffffffffffffffffffffffffffff168373ffffffffffffffffffffffffffffffffffffffff1603610bf05760006040517f94280d62000000000000000000000000000000000000000000000000000000008152600401610be7919061128f565b60405180910390fd5b81600160008673ffffffffffffffffffffffffffffffffffffffff1673ffffffffffffffffffffffffffffffffffffffff16815260200190815260200160002060008573ffffffffffffffffffffffffffffffffffffffff1673ffffffffffffffffffffffffffffffffffffffff168152602001908152602001600020819055508015610cdd578273ffffffffffffffffffffffffffffffffffffffff168473ffffffffffffffffffffffffffffffffffffffff167f8c5be1e5ebec7d5bd14f71427d1e84f3dd0314c0f7b2291e5b200ac8c7c3b92584604051610cd49190611181565b60405180910390a35b50505050565b610cee838383610d74565b505050565b610cfb610443565b610d31576040517f8dfc202b00000000000000000000000000000000000000000000000000000000815260040160405180910390fd5b565b610d3b610443565b15610d72576040517fd93c066500000000000000000000000000000000000000000000000000000000815260040160405180910390fd5b565b610d7c610d33565b610d87838383610d8c565b505050565b600073ffffffffffffffffffffffffffffffffffffffff168373ffffffffffffffffffffffffffffffffffffffff1603610dde578060026000828254610dd291906113b0565b92505081905550610eb1565b60008060008573ffffffffffffffffffffffffffffffffffffffff1673ffffffffffffffffffffffffffffffffffffffff16815260200190815260200160002054905081811015610e6a578381836040517fe450d38c000000000000000000000000000000000000000000000000000000008152600401610e619392919061134a565b60405180910390fd5b8181036000808673ffffffffffffffffffffffffffffffffffffffff1673ffffffffffffffffffffffffffffffffffffffff16815260200190815260200160002081905550505b600073ffffffffffffffffffffffffffffffffffffffff168273ffffffffffffffffffffffffffffffffffffffff1603610efa5780600260008282540392505081905550610f47565b806000808473ffffffffffffffffffffffffffffffffffffffff1673ffffffffffffffffffffffffffffffffffffffff168152602001908152602001600020600082825401925050819055505b8173ffffffffffffffffffffffffffffffffffffffff168373ffffffffffffffffffffffffffffffffffffffff167fddf252ad1be2c89b69c2b068fc378daa952ba7f163c4a11628f55a4df523b3ef83604051610fa49190611181565b60405180910390a3505050565b600081519050919050565b600082825260208201905092915050565b60005b83811015610feb578082015181840152602081019050610fd0565b60008484015250505050565b6000601f19601f8301169050919050565b600061101382610fb1565b61101d8185610fbc565b935061102d818560208601610fcd565b61103681610ff7565b840191505092915050565b6000602082019050818103600083015261105b8184611008565b905092915050565b600080fd5b600073ffffffffffffffffffffffffffffffffffffffff82169050919050565b600061109382611068565b9050919050565b6110a381611088565b81146110ae57600080fd5b50565b6000813590506110c08161109a565b92915050565b6000819050919050565b6110d9816110c6565b81146110e457600080fd5b50565b6000813590506110f6816110d0565b92915050565b6000806040838503121561111357611112611063565b5b6000611121858286016110b1565b9250506020611132858286016110e7565b9150509250929050565b60008115159050919050565b6111518161113c565b82525050565b600060208201905061116c6000830184611148565b92915050565b61117b816110c6565b82525050565b60006020820190506111966000830184611172565b92915050565b6000806000606084860312156111b5576111b4611063565b5b60006111c3868287016110b1565b93505060206111d4868287016110b1565b92505060406111e5868287016110e7565b9150509250925092565b600060ff82169050919050565b611205816111ef565b82525050565b600060208201905061122060008301846111fc565b92915050565b60006020828403121561123c5761123b611063565b5b600061124a848285016110e7565b91505092915050565b60006020828403121561126957611268611063565b5b6000611277848285016110b1565b91505092915050565b61128981611088565b82525050565b60006020820190506112a46000830184611280565b92915050565b600080604083850312156112c1576112c0611063565b5b60006112cf858286016110b1565b92505060206112e0858286016110b1565b9150509250929050565b7f4e487b7100000000000000000000000000000000000000000000000000000000600052602260045260246000fd5b6000600282049050600182168061133157607f821691505b602082108103611344576113436112ea565b5b50919050565b600060608201905061135f6000830186611280565b61136c6020830185611172565b6113796040830184611172565b949350505050565b7f4e487b7100000000000000000000000000000000000000000000000000000000600052601160045260246000fd5b60006113bb826110c6565b91506113c6836110c6565b92508282019050808211156113de576113dd611381565b5b9291505056fea264697066735822122033818e718a5c9da7cfd9f2d01502c27787c54a6dbc411a1ce644b9aa45468f6364736f6c63430008140033",
  "linkReferences": {},
  "deployedLinkReferences": {}
}