{
  "_format": "hh-sol-artifact-1",
  "contractName": "NextiaToken",
  "sourceName": "contracts/NextiaToken.sol",
  "abi": [
    {
      "inputs": [
        {
          "internalType": "uint256",
          "name": "initialSupply",
          "type": "uint256"
        },
        {
          "internalType": "address",
          "name": "initialOwner",
          "type": "address"
        }
      ],
      "stateMutability": "nonpayable",
      "type": "constructor"
    },
    {
      "inputs": [
        {
          "internalType": "address",
          "name": "spender",
          "type": "address"
        },
        {
          "internalType": "uint256",
          "name": "allowance",
          "type": "uint256"
        },
        {
          "internalType": "uint256",
          "name": "needed",
          "type": "uint256"
        }
      ],
      "name": "ERC20InsufficientAllowance",
      "type": "error"
    },
    {
      "inputs": [
        {
          "internalType": "address",
          "name": "sender",
          "type": "address"
        },
        {
          "internalType": "uint256",
          "name": "balance",
          "type": "uint256"
        },
        {
          "internalType": "uint256",
          "name": "needed",
          "type": "uint256"
        }
      ],
      "name": "ERC20InsufficientBalance",
      "type": "error"
    },
    {
      "inputs": [
        {
          "internalType": "address",
          "name": "approver",
          "type": "address"
        }
      ],
      "name": "ERC20InvalidApprover",
      "type": "error"
    },
    {
      "inputs": [
        {
          "internalType": "address",
          "name": "receiver",
          "type": "address"
        }
      ],
      "name": "ERC20InvalidReceiver",
      "type": "error"
    },
    {
      "inputs": [
        {
          "internalType": "address",
          "name": "sender",
          "type": "address"
        }
      ],
      "name": "ERC20InvalidSender",
      "type": "error"
    },
    {
      "inputs": [
        {
          "internalType": "address",
          "name": "spender",
          "type": "address"
        }
      ],
      "name": "ERC20InvalidSpender",
      "type": "error"
    },
    {
      "inputs": [],
      "name": "EnforcedPause",
      "type": "error"
    },
    {
      "inputs": [],
      "name": "ExpectedPause",
      "type": "error"
    },
    {
      "inputs": [
        {
          "internalType": "address",
          "name": "owner",
          "type": "address"
        }
      ],
      "name": "OwnableInvalidOwner",
      "type": "error"
    },
    {
      "inputs": [
        {
          "internalType": "address",
          "name": "account",
          "type": "address"
        }
      ],
      "name": "OwnableUnauthorizedAccount",
      "type": "error"
    },
    {
      "anonymous": false,
      "inputs": [
        {
          "indexed": true,
          "internalType": "address",
          "name": "owner",
          "type": "address"
        },
        {
          "indexed": true,
          "internalType": "address",
          "name": "spender",
          "type": "address"
        },
        {
          "indexed": false,
          "internalType": "uint256",
          "name": "value",
          "type": "uint256"
        }
      ],
      "name": "Approval",
      "type": "event"
    },
    {
      "anonymous": false,
      "inputs": [
        {
          "indexed": true,
          "internalType": "address",
          "name": "previousOwner",
          "type": "address"
        },
        {
          "indexed": true,
          "internalType": "address",
          "name": "newOwner",
          "type": "address"
        }
      ],
      "name": "OwnershipTransferred",
      "type": "event"
    },
    {
      "anonymous": false,
      "inputs": [
        {
          "indexed": false,
          "internalType": "address",
          "name": "account",
          "type": "address"
        }
      ],
      "name": "Paused",
      "type": "event"
    },
    {
      "anonymous": false,
      "inputs": [
        {
          "indexed": true,
          "internalType": "address",
          "name": "from",
          "type": "address"
        },
        {
          "indexed": true,
          "internalType": "address",
          "name": "to",
          "type": "address"
        },
        {
          "indexed": false,
          "internalType": "uint256",
          "name": "value",
          "type": "uint256"
        }
      ],
      "name": "Transfer",
      "type": "event"
    },
    {
      "anonymous": false,
      "inputs": [
        {
          "indexed": false,
          "internalType": "address",
          "name": "account",
          "type": "address"
        }
      ],
      "name": "Unpaused",
      "type": "event"
    },
    {
      "inputs": [],
      "name": "TOKEN_NAME",
      "outputs": [
        {
          "internalType": "string",
          "name": "",
          "type": "string"
        }
      ],
      "stateMutability": "view",
      "type": "function"
    },
    {
      "inputs": [],
      "name": "TOKEN_SYMBOL",
      "outputs": [
        {
          "internalType": "string",
          "name": "",
          "type": "string"
        }
      ],
      "stateMutability": "view",
      "type": "function"
    },
    {
      "inputs": [
        {
          "internalType": "address",
          "name": "owner",
          "type": "address"
        },
        {
          "internalType": "address",
          "name": "spender",
          "type": "address"
        }
      ],
      "name": "allowance",
      "outputs": [
        {
          "internalType": "uint256",
          "name": "",
          "type": "uint256"
        }
      ],
      "stateMutability": "view",
      "type": "function"
    },
    {
      "inputs": [
        {
          "internalType": "address",
          "name": "spender",
          "type": "address"
        },
        {
          "internalType": "uint256",
          "name": "amount",
          "type": "uint256"
        }
      ],
      "name": "approve",
      "outputs": [
        {
          "internalType": "bool",
          "name": "",
          "type": "bool"
        }
      ],
      "stateMutability": "nonpayable",
      "type": "function"
    },
    {
      "inputs": [
        {
          "internalType": "address",
          "name": "account",
          "type": "address"
        }
      ],
      "name": "balanceOf",
      "outputs": [
        {
          "internalType": "uint256",
          "name": "",
          "type": "uint256"
        }
      ],
      "stateMutability": "view",
      "type": "function"
    },
    {
      "inputs": [
        {
          "internalType": "uint256",
          "name": "value",
          "type": "uint256"
        }
      ],
      "name": "burn",
      "outputs": [],
      "stateMutability": "nonpayable",
      "type": "function"
    },
    {
      "inputs": [
        {
          "internalType": "address",
          "name": "account",
          "type": "address"
        },
        {
          "internalType": "uint256",
          "name": "value",
          "type": "uint256"
        }
      ],
      "name": "burnFrom",
      "outputs": [],
      "stateMutability": "nonpayable",
      "type": "function"
    },
    {
      "inputs": [],
      "name": "decimals",
      "outputs": [
        {
          "internalType": "uint8",
          "name": "",
          "type": "uint8"
        }
      ],
      "stateMutability": "view",
      "type": "function"
    },
    {
      "inputs": [
        {
          "internalType": "address",
          "name": "to",
          "type": "address"
        },
        {
          "internalType": "uint256",
          "name": "amount",
          "type": "uint256"
        }
      ],
      "name": "mint",
      "outputs": [],
      "stateMutability": "nonpayable",
      "type": "function"
    },
    {
      "inputs": [],
      "name": "name",
      "outputs": [
        {
          "internalType": "string",
          "name": "",
          "type": "string"
        }
      ],
      "stateMutability": "view",
      "type": "function"
    },
    {
      "inputs": [],
      "name": "owner",
      "outputs": [
        {
          "internalType": "address",
          "name": "",
          "type": "address"
        }
      ],
      "stateMutability": "view",
      "type": "function"
    },
    {
      "inputs": [],
      "name": "pause",
      "outputs": [],
      "stateMutability": "nonpayable",
      "type": "function"
    },
    {
      "inputs": [],
      "name": "paused",
      "outputs": [
        {
          "internalType": "bool",
          "name": "",
          "type": "bool"
        }
      ],
      "stateMutability": "view",
      "type": "function"
    },
    {
      "inputs": [],
      "name": "renounceOwnership",
      "outputs": [],
      "stateMutability": "nonpayable",
      "type": "function"
    },
    {
      "inputs": [],
      "name": "symbol",
      "outputs": [
        {
          "internalType": "string",
          "name": "",
          "type": "string"
        }
      ],
      "stateMutability": "view",
      "type": "function"
    },
    {
      "inputs": [],
      "name": "totalSupply",
      "outputs": [
        {
          "internalType": "uint256",
          "name": "",
          "type": "uint256"
        }
      ],
      "stateMutability": "view",
      "type": "function"
    },
    {
      "inputs": [
        {
          "internalType": "address",
          "name": "to",
          "type": "address"
        },
        {
          "internalType": "uint256",
          "name": "value",
          "type": "uint256"
        }
      ],
      "name": "transfer",
      "outputs": [
        {
          "internalType": "bool",
          "name": "",
          "type": "bool"
        }
      ],
      "stateMutability": "nonpayable",
      "type": "function"
    },
    {
      "inputs": [
        {
          "internalType": "address",
          "name": "from",
          "type": "address"
        },
        {
          "internalType": "address",
          "name": "to",
          "type": "address"
        },
        {
          "internalType": "uint256",
          "name": "value",
          "type": "uint256"
        }
      ],
      "name": "transferFrom",
      "outputs": [
        {
          "internalType": "bool",
          "name": "",
          "type": "bool"
        }
      ],
      "stateMutability": "nonpayable",
      "type": "function"
    },
    {
      "inputs": [
        {
          "internalType": "address",
          "name": "newOwner",
          "type": "address"
        }
      ],
      "name": "transferOwnership",
      "outputs": [],
      "stateMutability": "nonpayable",
      "type": "function"
    },
    {
      "inputs": [],
      "name": "unpause",
      "outputs": [],
      "stateMutability": "nonpayable",
      "type": "function"
    }
  ],
  "bytecode": "0x60806040523480156200001157600080fd5b506040516200104238038062001042833981016040819052620000349162000303565b806040518060400160405280600b81526020016a2732bc3a34b0aa37b5b2b760a91b8152506040518060400160405280600381526020016213961560ea1b8152508160039081620000869190620003e6565b506004620000958282620003e6565b5050506001600160a01b038116620000c857604051631e4fbdf760e01b8152600060048201526024015b60405180910390fd5b620000d381620000e8565b50620000e0818362000142565b5050620004da565b600580546001600160a01b03838116610100818102610100600160a81b031985161790945560405193909204169182907f8be0079c531659141344cd1fd0a4f28419497f9722a3daafe3b4186f6b6457e090600090a35050565b6001600160a01b0382166200016e5760405163ec442f0560e01b815260006004820152602401620000bf565b6200017c6000838362000180565b5050565b6200018d83838362000192565b505050565b6200019c620001a9565b6200018d838383620001d0565b60055460ff1615620001ce5760405163d93c066560e01b815260040160405180910390fd5b565b6001600160a01b038316620001ff578060026000828254620001f39190620004b2565b90915550620002739050565b6001600160a01b03831660009081526020819052604090205481811015620002545760405163391434e360e21b81526001600160a01b03851660048201526024810182905260448101839052606401620000bf565b6001600160a01b03841660009081526020819052604090209082900390555b6001600160a01b0382166200029157600280548290039055620002b0565b6001600160a01b03821660009081526020819052604090208054820190555b816001600160a01b0316836001600160a01b03167fddf252ad1be2c89b69c2b068fc378daa952ba7f163c4a11628f55a4df523b3ef83604051620002f691815260200190565b60405180910390a3505050565b600080604083850312156200031757600080fd5b825160208401519092506001600160a01b03811681146200033757600080fd5b809150509250929050565b634e487b7160e01b600052604160045260246000fd5b600181811c908216806200036d57607f821691505b6020821081036200038e57634e487b7160e01b600052602260045260246000fd5b50919050565b601f8211156200018d57600081815260208120601f850160051c81016020861015620003bd5750805b601f850160051c820191505b81811015620003de57828155600101620003c9565b505050505050565b81516001600160401b0381111562000402576200040262000342565b6200041a8162000413845462000358565b8462000394565b602080601f831160018114620004525760008415620004395750858301515b600019600386901b1c1916600185901b178555620003de565b600085815260208120601f198616915b82811015620004835788860151825594840194600190910190840162000462565b5085821015620004a25787850151600019600388901b60f8161c191681555b5050505050600190811b01905550565b80820180821115620004d457634e487b7160e01b600052601160045260246000fd5b92915050565b610b5880620004ea6000396000f3fe608060405234801561001057600080fd5b506004361061012c5760003560e01c80635c975abb116100ad5780638da5cb5b116100715780638da5cb5b1461027957806395d89b41146102a2578063a9059cbb146102aa578063dd62ed3e146102bd578063f2fde38b146102f657600080fd5b80635c975abb1461022257806370a082311461022d578063715018a61461025657806379cc67901461025e5780638456cb591461027157600080fd5b80632a905318116100f45780632a905318146101c1578063313ce567146101e35780633f4ba83a146101f257806340c10f19146101fc57806342966c681461020f57600080fd5b806306fdde0314610131578063095ea7b31461014f57806318160ddd14610172578063188214001461018457806323b872dd146101ae575b600080fd5b610139610309565b6040516101469190610990565b60405180910390f35b61016261015d3660046109fa565b61039b565b6040519015158152602001610146565b6002545b604051908152602001610146565b6101396040518060400160405280600b81526020016a2732bc3a34b0aa37b5b2b760a91b81525081565b6101626101bc366004610a24565b6103b8565b6101396040518060400160405280600381526020016213961560ea1b81525081565b60405160128152602001610146565b6101fa6103dc565b005b6101fa61020a3660046109fa565b6103ee565b6101fa61021d366004610a60565b610404565b60055460ff16610162565b61017661023b366004610a79565b6001600160a01b031660009081526020819052604090205490565b6101fa610411565b6101fa61026c3660046109fa565b610423565b6101fa610438565b60055461010090046001600160a01b03166040516001600160a01b039091168152602001610146565b610139610448565b6101626102b83660046109fa565b610457565b6101766102cb366004610a94565b6001600160a01b03918216600090815260016020908152604080832093909416825291909152205490565b6101fa610304366004610a79565b61046f565b60606003805461031890610ac7565b80601f016020809104026020016040519081016040528092919081815260200182805461034490610ac7565b80156103915780601f1061036657610100808354040283529160200191610391565b820191906000526020600020905b81548152906001019060200180831161037457829003601f168201915b5050505050905090565b60006103a56104af565b6103af83836104d3565b90505b92915050565b6000336103c68582856104e1565b6103d1858585610560565b506001949350505050565b6103e46105c4565b6103ec6105f7565b565b6103f66105c4565b6104008282610649565b5050565b61040e338261067f565b50565b6104196105c4565b6103ec60006106b5565b61042e8233836104e1565b610400828261067f565b6104406105c4565b6103ec61070f565b60606004805461031890610ac7565b600033610465818585610560565b5060019392505050565b6104776105c4565b6001600160a01b0381166104a657604051631e4fbdf760e01b8152600060048201526024015b60405180910390fd5b61040e816106b5565b60055460ff16156103ec5760405163d93c066560e01b815260040160405180910390fd5b60003361046581858561074c565b6001600160a01b0383811660009081526001602090815260408083209386168352929052205460001981101561055a578181101561054b57604051637dc7a0d960e11b81526001600160a01b0384166004820152602481018290526044810183905260640161049d565b61055a84848484036000610755565b50505050565b6001600160a01b03831661058a57604051634b637e8f60e11b81526000600482015260240161049d565b6001600160a01b0382166105b45760405163ec442f0560e01b81526000600482015260240161049d565b6105bf83838361082a565b505050565b6005546001600160a01b036101009091041633146103ec5760405163118cdaa760e01b815233600482015260240161049d565b6105ff610835565b6005805460ff191690557f5db9ee0a495bf2e6ff9c91a7834c1ba4fdd244a5e8aa4e537bd38aeae4b073aa335b6040516001600160a01b03909116815260200160405180910390a1565b6001600160a01b0382166106735760405163ec442f0560e01b81526000600482015260240161049d565b6104006000838361082a565b6001600160a01b0382166106a957604051634b637e8f60e11b81526000600482015260240161049d565b6104008260008361082a565b600580546001600160a01b03838116610100818102610100600160a81b031985161790945560405193909204169182907f8be0079c531659141344cd1fd0a4f28419497f9722a3daafe3b4186f6b6457e090600090a35050565b6107176104af565b6005805460ff191660011790557f62e78cea01bee320cd4e420270b5ea74000d11b0c9f74754ebdbfc544b05a25861062c3390565b6105bf83838360015b6001600160a01b03841661077f5760405163e602df0560e01b81526000600482015260240161049d565b6001600160a01b0383166107a957604051634a1406b160e11b81526000600482015260240161049d565b6001600160a01b038085166000908152600160209081526040808320938716835292905220829055801561055a57826001600160a01b0316846001600160a01b03167f8c5be1e5ebec7d5bd14f71427d1e84f3dd0314c0f7b2291e5b200ac8c7c3b9258460405161081c91815260200190565b60405180910390a350505050565b6105bf838383610858565b60055460ff166103ec57604051638dfc202b60e01b815260040160405180910390fd5b6108606104af565b6105bf8383836001600160a01b0383166108915780600260008282546108869190610b01565b909155506109039050565b6001600160a01b038316600090815260208190526040902054818110156108e45760405163391434e360e21b81526001600160a01b0385166004820152602481018290526044810183905260640161049d565b6001600160a01b03841660009081526020819052604090209082900390555b6001600160a01b03821661091f5760028054829003905561093e565b6001600160a01b03821660009081526020819052604090208054820190555b816001600160a01b0316836001600160a01b03167fddf252ad1be2c89b69c2b068fc378daa952ba7f163c4a11628f55a4df523b3ef8360405161098391815260200190565b60405180910390a3505050565b600060208083528351808285015260005b818110156109bd578581018301518582016040015282016109a1565b506000604082860101526040601f19601f8301168501019250505092915050565b80356001600160a01b03811681146109f557600080fd5b919050565b60008060408385031215610a0d57600080fd5b610a16836109de565b946020939093013593505050565b600080600060608486031215610a3957600080fd5b610a42846109de565b9250610a50602085016109de565b9150604084013590509250925092565b600060208284031215610a7257600080fd5b5035919050565b600060208284031215610a8b57600080fd5b6103af826109de565b60008060408385031215610aa757600080fd5b610ab0836109de565b9150610abe602084016109de565b90509250929050565b600181811c90821680610adb57607f821691505b602082108103610afb57634e487b7160e01b600052602260045260246000fd5b50919050565b808201808211156103b257634e487b7160e01b600052601160045260246000fdfea2646970667358221220bfd6d83788b7bd18bee0da3a824bb98c3068b21ab9b05be4b23d391bc342fe3164736f6c63430008140033",
  "linkReferences": {},
  "deployedLinkReferences": {}
}