{
  "_format": "hh-sol-artifact-1",
  "contractName": "NextiaToken",
  "sourceName": "contracts/NextiaToken.sol",
  "abi": [
    {
      "inputs": [
        {
          "internalType": "uint256",
          "name": "initialSupply",
          "type": "uint256"
        },
        {
          "internalType": "address",
          "name": "initialOwner",
          "type": "address"
        }
      ],
      "stateMutability": "nonpayable",
      "type": "constructor"
    },
    {
      "inputs": [
        {
          "internalType": "address",
          "name": "spender",
          "type": "address"
        },
        {
          "internalType": "uint256",
          "name": "allowance",
          "type": "uint256"
        },
        {
          "internalType": "uint256",
          "name": "needed",
          "type": "uint256"
        }
      ],
      "name": "ERC20InsufficientAllowance",
      "type": "error"
    },
    {
      "inputs": [
        {
          "internalType": "address",
          "name": "sender",
          "type": "address"
        },
        {
          "internalType": "uint256",
          "name": "balance",
          "type": "uint256"
        },
        {
          "internalType": "uint256",
          "name": "needed",
          "type": "uint256"
        }
      ],
      "name": "ERC20InsufficientBalance",
      "type": "error"
    },
    {
      "inputs": [
        {
          "internalType": "address",
          "name": "approver",
          "type": "address"
        }
      ],
      "name": "ERC20InvalidApprover",
      "type": "error"
    },
    {
      "inputs": [
        {
          "internalType": "address",
          "name": "receiver",
          "type": "address"
        }
      ],
      "name": "ERC20InvalidReceiver",
      "type": "error"
    },
    {
      "inputs": [
        {
          "internalType": "address",
          "name": "sender",
          "type": "address"
        }
      ],
      "name": "ERC20InvalidSender",
      "type": "error"
    },
    {
      "inputs": [
        {
          "internalType": "address",
          "name": "spender",
          "type": "address"
        }
      ],
      "name": "ERC20InvalidSpender",
      "type": "error"
    },
    {
      "inputs": [],
      "name": "EnforcedPause",
      "type": "error"
    },
    {
      "inputs": [],
      "name": "ExpectedPause",
      "type": "error"
    },
    {
      "inputs": [
        {
          "internalType": "address",
          "name": "owner",
          "type": "address"
        }
      ],
      "name": "OwnableInvalidOwner",
      "type": "error"
    },
    {
      "inputs": [
        {
          "internalType": "address",
          "name": "account",
          "type": "address"
        }
      ],
      "name": "OwnableUnauthorizedAccount",
      "type": "error"
    },
    {
      "anonymous": false,
      "inputs": [
        {
          "indexed": true,
          "internalType": "address",
          "name": "owner",
          "type": "address"
        },
        {
          "indexed": true,
          "internalType": "address",
          "name": "spender",
          "type": "address"
        },
        {
          "indexed": false,
          "internalType": "uint256",
          "name": "value",
          "type": "uint256"
        }
      ],
      "name": "Approval",
      "type": "event"
    },
    {
      "anonymous": false,
      "inputs": [
        {
          "indexed": true,
          "internalType": "address",
          "name": "previousOwner",
          "type": "address"
        },
        {
          "indexed": true,
          "internalType": "address",
          "name": "newOwner",
          "type": "address"
        }
      ],
      "name": "OwnershipTransferred",
      "type": "event"
    },
    {
      "anonymous": false,
      "inputs": [
        {
          "indexed": false,
          "internalType": "address",
          "name": "account",
          "type": "address"
        }
      ],
      "name": "Paused",
      "type": "event"
    },
    {
      "anonymous": false,
      "inputs": [
        {
          "indexed": true,
          "internalType": "address",
          "name": "from",
          "type": "address"
        },
        {
          "indexed": true,
          "internalType": "address",
          "name": "to",
          "type": "address"
        },
        {
          "indexed": false,
          "internalType": "uint256",
          "name": "value",
          "type": "uint256"
        }
      ],
      "name": "Transfer",
      "type": "event"
    },
    {
      "anonymous": false,
      "inputs": [
        {
          "indexed": false,
          "internalType": "address",
          "name": "account",
          "type": "address"
        }
      ],
      "name": "Unpaused",
      "type": "event"
    },
    {
      "inputs": [
        {
          "internalType": "address",
          "name": "owner",
          "type": "address"
        },
        {
          "internalType": "address",
          "name": "spender",
          "type": "address"
        }
      ],
      "name": "allowance",
      "outputs": [
        {
          "internalType": "uint256",
          "name": "",
          "type": "uint256"
        }
      ],
      "stateMutability": "view",
      "type": "function"
    },
    {
      "inputs": [
        {
          "internalType": "address",
          "name": "spender",
          "type": "address"
        },
        {
          "internalType": "uint256",
          "name": "amount",
          "type": "uint256"
        }
      ],
      "name": "approve",
      "outputs": [
        {
          "internalType": "bool",
          "name": "",
          "type": "bool"
        }
      ],
      "stateMutability": "nonpayable",
      "type": "function"
    },
    {
      "inputs": [
        {
          "internalType": "address",
          "name": "account",
          "type": "address"
        }
      ],
      "name": "balanceOf",
      "outputs": [
        {
          "internalType": "uint256",
          "name": "",
          "type": "uint256"
        }
      ],
      "stateMutability": "view",
      "type": "function"
    },
    {
      "inputs": [
        {
          "internalType": "uint256",
          "name": "value",
          "type": "uint256"
        }
      ],
      "name": "burn",
      "outputs": [],
      "stateMutability": "nonpayable",
      "type": "function"
    },
    {
      "inputs": [
        {
          "internalType": "address",
          "name": "account",
          "type": "address"
        },
        {
          "internalType": "uint256",
          "name": "value",
          "type": "uint256"
        }
      ],
      "name": "burnFrom",
      "outputs": [],
      "stateMutability": "nonpayable",
      "type": "function"
    },
    {
      "inputs": [],
      "name": "decimals",
      "outputs": [
        {
          "internalType": "uint8",
          "name": "",
          "type": "uint8"
        }
      ],
      "stateMutability": "view",
      "type": "function"
    },
    {
      "inputs": [
        {
          "internalType": "address",
          "name": "to",
          "type": "address"
        },
        {
          "internalType": "uint256",
          "name": "amount",
          "type": "uint256"
        }
      ],
      "name": "mint",
      "outputs": [],
      "stateMutability": "nonpayable",
      "type": "function"
    },
    {
      "inputs": [],
      "name": "name",
      "outputs": [
        {
          "internalType": "string",
          "name": "",
          "type": "string"
        }
      ],
      "stateMutability": "view",
      "type": "function"
    },
    {
      "inputs": [],
      "name": "owner",
      "outputs": [
        {
          "internalType": "address",
          "name": "",
          "type": "address"
        }
      ],
      "stateMutability": "view",
      "type": "function"
    },
    {
      "inputs": [],
      "name": "pause",
      "outputs": [],
      "stateMutability": "nonpayable",
      "type": "function"
    },
    {
      "inputs": [],
      "name": "paused",
      "outputs": [
        {
          "internalType": "bool",
          "name": "",
          "type": "bool"
        }
      ],
      "stateMutability": "view",
      "type": "function"
    },
    {
      "inputs": [],
      "name": "renounceOwnership",
      "outputs": [],
      "stateMutability": "nonpayable",
      "type": "function"
    },
    {
      "inputs": [],
      "name": "symbol",
      "outputs": [
        {
          "internalType": "string",
          "name": "",
          "type": "string"
        }
      ],
      "stateMutability": "view",
      "type": "function"
    },
    {
      "inputs": [],
      "name": "totalSupply",
      "outputs": [
        {
          "internalType": "uint256",
          "name": "",
          "type": "uint256"
        }
      ],
      "stateMutability": "view",
      "type": "function"
    },
    {
      "inputs": [
        {
          "internalType": "address",
          "name": "to",
          "type": "address"
        },
        {
          "internalType": "uint256",
          "name": "value",
          "type": "uint256"
        }
      ],
      "name": "transfer",
      "outputs": [
        {
          "internalType": "bool",
          "name": "",
          "type": "bool"
        }
      ],
      "stateMutability": "nonpayable",
      "type": "function"
    },
    {
      "inputs": [
        {
          "internalType": "address",
          "name": "from",
          "type": "address"
        },
        {
          "internalType": "address",
          "name": "to",
          "type": "address"
        },
        {
          "internalType": "uint256",
          "name": "value",
          "type": "uint256"
        }
      ],
      "name": "transferFrom",
      "outputs": [
        {
          "internalType": "bool",
          "name": "",
          "type": "bool"
        }
      ],
      "stateMutability": "nonpayable",
      "type": "function"
    },
    {
      "inputs": [
        {
          "internalType": "address",
          "name": "newOwner",
          "type": "address"
        }
      ],
      "name": "transferOwnership",
      "outputs": [],
      "stateMutability": "nonpayable",
      "type": "function"
    },
    {
      "inputs": [],
      "name": "unpause",
      "outputs": [],
      "stateMutability": "nonpayable",
      "type": "function"
    }
  ],
  "bytecode": "0x60806040523480156200001157600080fd5b5060405162002254380380620022548339818101604052810190620000379190620006df565b806040518060400160405280600b81526020017f4e6578746961546f6b656e0000000000000000000000000000000000000000008152506040518060400160405280600381526020017f4e585400000000000000000000000000000000000000000000000000000000008152508160039081620000b5919062000996565b508060049081620000c7919062000996565b505050600073ffffffffffffffffffffffffffffffffffffffff168173ffffffffffffffffffffffffffffffffffffffff16036200013f5760006040517f1e4fbdf700000000000000000000000000000000000000000000000000000000815260040162000136919062000a8e565b60405180910390fd5b6200015081620001bf60201b60201c565b506200016d670398f6525d2d8b0c60c01b6200028560201b60201c565b6200018967c5cfbcda4fa8018c60c01b6200028560201b60201c565b620001a56766eec1a2dc41999760c01b6200028560201b60201c565b620001b781836200028860201b60201c565b505062000b80565b6000600560019054906101000a900473ffffffffffffffffffffffffffffffffffffffff16905081600560016101000a81548173ffffffffffffffffffffffffffffffffffffffff021916908373ffffffffffffffffffffffffffffffffffffffff1602179055508173ffffffffffffffffffffffffffffffffffffffff168173ffffffffffffffffffffffffffffffffffffffff167f8be0079c531659141344cd1fd0a4f28419497f9722a3daafe3b4186f6b6457e060405160405180910390a35050565b50565b600073ffffffffffffffffffffffffffffffffffffffff168273ffffffffffffffffffffffffffffffffffffffff1603620002fd5760006040517fec442f05000000000000000000000000000000000000000000000000000000008152600401620002f4919062000a8e565b60405180910390fd5b62000311600083836200031560201b60201c565b5050565b62000331673ee9beebe3b5d77160c01b6200028560201b60201c565b6200034d672ef74927df14c1ef60c01b6200028560201b60201c565b6200036967b81a8eaba4f013dc60c01b6200028560201b60201c565b6200037c8383836200038160201b60201c565b505050565b62000391620003a960201b60201c565b620003a4838383620003f360201b60201c565b505050565b620003b96200062360201b60201c565b15620003f1576040517fd93c066500000000000000000000000000000000000000000000000000000000815260040160405180910390fd5b565b600073ffffffffffffffffffffffffffffffffffffffff168373ffffffffffffffffffffffffffffffffffffffff1603620004495780600260008282546200043c919062000ada565b925050819055506200051f565b60008060008573ffffffffffffffffffffffffffffffffffffffff1673ffffffffffffffffffffffffffffffffffffffff16815260200190815260200160002054905081811015620004d8578381836040517fe450d38c000000000000000000000000000000000000000000000000000000008152600401620004cf9392919062000b26565b60405180910390fd5b8181036000808673ffffffffffffffffffffffffffffffffffffffff1673ffffffffffffffffffffffffffffffffffffffff16815260200190815260200160002081905550505b600073ffffffffffffffffffffffffffffffffffffffff168273ffffffffffffffffffffffffffffffffffffffff16036200056a5780600260008282540392505081905550620005b7565b806000808473ffffffffffffffffffffffffffffffffffffffff1673ffffffffffffffffffffffffffffffffffffffff168152602001908152602001600020600082825401925050819055505b8173ffffffffffffffffffffffffffffffffffffffff168373ffffffffffffffffffffffffffffffffffffffff167fddf252ad1be2c89b69c2b068fc378daa952ba7f163c4a11628f55a4df523b3ef8360405162000616919062000b63565b60405180910390a3505050565b6000600560009054906101000a900460ff16905090565b600080fd5b6000819050919050565b62000654816200063f565b81146200066057600080fd5b50565b600081519050620006748162000649565b92915050565b600073ffffffffffffffffffffffffffffffffffffffff82169050919050565b6000620006a7826200067a565b9050919050565b620006b9816200069a565b8114620006c557600080fd5b50565b600081519050620006d981620006ae565b92915050565b60008060408385031215620006f957620006f86200063a565b5b6000620007098582860162000663565b92505060206200071c85828601620006c8565b9150509250929050565b600081519050919050565b7f4e487b7100000000000000000000000000000000000000000000000000000000600052604160045260246000fd5b7f4e487b7100000000000000000000000000000000000000000000000000000000600052602260045260246000fd5b60006002820490506001821680620007a857607f821691505b602082108103620007be57620007bd62000760565b5b50919050565b60008190508160005260206000209050919050565b60006020601f8301049050919050565b600082821b905092915050565b600060088302620008287fffffffffffffffffffffffffffffffffffffffffffffffffffffffffffffffff82620007e9565b620008348683620007e9565b95508019841693508086168417925050509392505050565b6000819050919050565b600062000877620008716200086b846200063f565b6200084c565b6200063f565b9050919050565b6000819050919050565b620008938362000856565b620008ab620008a2826200087e565b848454620007f6565b825550505050565b600090565b620008c2620008b3565b620008cf81848462000888565b505050565b5b81811015620008f757620008eb600082620008b8565b600181019050620008d5565b5050565b601f82111562000946576200091081620007c4565b6200091b84620007d9565b810160208510156200092b578190505b620009436200093a85620007d9565b830182620008d4565b50505b505050565b600082821c905092915050565b60006200096b600019846008026200094b565b1980831691505092915050565b600062000986838362000958565b9150826002028217905092915050565b620009a18262000726565b67ffffffffffffffff811115620009bd57620009bc62000731565b5b620009c982546200078f565b620009d6828285620008fb565b600060209050601f83116001811462000a0e5760008415620009f9578287015190505b62000a05858262000978565b86555062000a75565b601f19841662000a1e86620007c4565b60005b8281101562000a485784890151825560018201915060208501945060208101905062000a21565b8683101562000a68578489015162000a64601f89168262000958565b8355505b6001600288020188555050505b505050505050565b62000a88816200069a565b82525050565b600060208201905062000aa5600083018462000a7d565b92915050565b7f4e487b7100000000000000000000000000000000000000000000000000000000600052601160045260246000fd5b600062000ae7826200063f565b915062000af4836200063f565b925082820190508082111562000b0f5762000b0e62000aab565b5b92915050565b62000b20816200063f565b82525050565b600060608201905062000b3d600083018662000a7d565b62000b4c602083018562000b15565b62000b5b604083018462000b15565b949350505050565b600060208201905062000b7a600083018462000b15565b92915050565b6116c48062000b906000396000f3fe608060405234801561001057600080fd5b50600436106101165760003560e01c806370a08231116100a25780638da5cb5b116100715780638da5cb5b1461029557806395d89b41146102b3578063a9059cbb146102d1578063dd62ed3e14610301578063f2fde38b1461033157610116565b806370a0823114610235578063715018a61461026557806379cc67901461026f5780638456cb591461028b57610116565b8063313ce567116100e9578063313ce567146101b75780633f4ba83a146101d557806340c10f19146101df57806342966c68146101fb5780635c975abb1461021757610116565b806306fdde031461011b578063095ea7b31461013957806318160ddd1461016957806323b872dd14610187575b600080fd5b61012361034d565b60405161013091906112eb565b60405180910390f35b610153600480360381019061014e91906113a6565b6103df565b6040516101609190611401565b60405180910390f35b61017161045f565b60405161017e919061142b565b60405180910390f35b6101a1600480360381019061019c9190611446565b610469565b6040516101ae9190611401565b60405180910390f35b6101bf610498565b6040516101cc91906114b5565b60405180910390f35b6101dd6104a1565b005b6101f960048036038101906101f491906113a6565b610517565b005b610215600480360381019061021091906114d0565b610591565b005b61021f6105a5565b60405161022c9190611401565b60405180910390f35b61024f600480360381019061024a91906114fd565b6105bc565b60405161025c919061142b565b60405180910390f35b61026d610604565b005b610289600480360381019061028491906113a6565b610618565b005b610293610638565b005b61029d6106ae565b6040516102aa9190611539565b60405180910390f35b6102bb6106d8565b6040516102c891906112eb565b60405180910390f35b6102eb60048036038101906102e691906113a6565b61076a565b6040516102f89190611401565b60405180910390f35b61031b60048036038101906103169190611554565b61078d565b604051610328919061142b565b60405180910390f35b61034b600480360381019061034691906114fd565b610814565b005b60606003805461035c906115c3565b80601f0160208091040260200160405190810160405280929190818152602001828054610388906115c3565b80156103d55780601f106103aa576101008083540402835291602001916103d5565b820191906000526020600020905b8154815290600101906020018083116103b857829003601f168201915b5050505050905090565b60006103f567a113940630ebbaa960c01b61089a565b6103fd61089d565b610411670f75c66b53b64aed60c01b61089a565b61042567860563973738b7a160c01b61089a565b610439674ee3424769fb988c60c01b61089a565b61044d67b9694a23fcdb638d60c01b61089a565b61045783836108de565b905092915050565b6000600254905090565b600080610474610901565b9050610481858285610909565b61048c85858561099e565b60019150509392505050565b60006012905090565b6104b56750bd3883fe37565a60c01b61089a565b6104bd610a92565b6104d16718c70d106fa265be60c01b61089a565b6104e5677d23cc53d569543060c01b61089a565b6104f967c6c3c874338ca6ae60c01b61089a565b61050d6701a073c09b3b37ed60c01b61089a565b610515610b19565b565b61052b67ad1d7c2f2bb78bfe60c01b61089a565b610533610a92565b61054767b34b46a3008dfdb960c01b61089a565b61055b67fba00f0d294c3e4060c01b61089a565b61056f6777e39c5b0d55890560c01b61089a565b61058367dbced540fce5461660c01b61089a565b61058d8282610b7c565b5050565b6105a261059c610901565b82610bfe565b50565b6000600560009054906101000a900460ff16905090565b60008060008373ffffffffffffffffffffffffffffffffffffffff1673ffffffffffffffffffffffffffffffffffffffff168152602001908152602001600020549050919050565b61060c610a92565b6106166000610c80565b565b61062a82610624610901565b83610909565b6106348282610bfe565b5050565b61064c67135607354ae46fdc60c01b61089a565b610654610a92565b61066867bab1cc4180168f9660c01b61089a565b61067c675a0c267c2246a36560c01b61089a565b6106906778e6d66d27b35a7c60c01b61089a565b6106a46781fa4619d4dbdadd60c01b61089a565b6106ac610d46565b565b6000600560019054906101000a900473ffffffffffffffffffffffffffffffffffffffff16905090565b6060600480546106e7906115c3565b80601f0160208091040260200160405190810160405280929190818152602001828054610713906115c3565b80156107605780601f1061073557610100808354040283529160200191610760565b820191906000526020600020905b81548152906001019060200180831161074357829003601f168201915b5050505050905090565b600080610775610901565b905061078281858561099e565b600191505092915050565b6000600160008473ffffffffffffffffffffffffffffffffffffffff1673ffffffffffffffffffffffffffffffffffffffff16815260200190815260200160002060008373ffffffffffffffffffffffffffffffffffffffff1673ffffffffffffffffffffffffffffffffffffffff16815260200190815260200160002054905092915050565b61081c610a92565b600073ffffffffffffffffffffffffffffffffffffffff168173ffffffffffffffffffffffffffffffffffffffff160361088e5760006040517f1e4fbdf70000000000000000000000000000000000000000000000000000000081526004016108859190611539565b60405180910390fd5b61089781610c80565b50565b50565b6108a56105a5565b156108dc576040517fd93c066500000000000000000000000000000000000000000000000000000000815260040160405180910390fd5b565b6000806108e9610901565b90506108f6818585610da9565b600191505092915050565b600033905090565b6000610915848461078d565b90507fffffffffffffffffffffffffffffffffffffffffffffffffffffffffffffffff8110156109985781811015610988578281836040517ffb8f41b200000000000000000000000000000000000000000000000000000000815260040161097f939291906115f4565b60405180910390fd5b61099784848484036000610dbb565b5b50505050565b600073ffffffffffffffffffffffffffffffffffffffff168373ffffffffffffffffffffffffffffffffffffffff1603610a105760006040517f96c6fd1e000000000000000000000000000000000000000000000000000000008152600401610a079190611539565b60405180910390fd5b600073ffffffffffffffffffffffffffffffffffffffff168273ffffffffffffffffffffffffffffffffffffffff1603610a825760006040517fec442f05000000000000000000000000000000000000000000000000000000008152600401610a799190611539565b60405180910390fd5b610a8d838383610f92565b505050565b610a9a610901565b73ffffffffffffffffffffffffffffffffffffffff16610ab86106ae565b73ffffffffffffffffffffffffffffffffffffffff1614610b1757610adb610901565b6040517f118cdaa7000000000000000000000000000000000000000000000000000000008152600401610b0e9190611539565b60405180910390fd5b565b610b21610fde565b6000600560006101000a81548160ff0219169083151502179055507f5db9ee0a495bf2e6ff9c91a7834c1ba4fdd244a5e8aa4e537bd38aeae4b073aa610b65610901565b604051610b729190611539565b60405180910390a1565b600073ffffffffffffffffffffffffffffffffffffffff168273ffffffffffffffffffffffffffffffffffffffff1603610bee5760006040517fec442f05000000000000000000000000000000000000000000000000000000008152600401610be59190611539565b60405180910390fd5b610bfa60008383610f92565b5050565b600073ffffffffffffffffffffffffffffffffffffffff168273ffffffffffffffffffffffffffffffffffffffff1603610c705760006040517f96c6fd1e000000000000000000000000000000000000000000000000000000008152600401610c679190611539565b60405180910390fd5b610c7c82600083610f92565b5050565b6000600560019054906101000a900473ffffffffffffffffffffffffffffffffffffffff16905081600560016101000a81548173ffffffffffffffffffffffffffffffffffffffff021916908373ffffffffffffffffffffffffffffffffffffffff1602179055508173ffffffffffffffffffffffffffffffffffffffff168173ffffffffffffffffffffffffffffffffffffffff167f8be0079c531659141344cd1fd0a4f28419497f9722a3daafe3b4186f6b6457e060405160405180910390a35050565b610d4e61089d565b6001600560006101000a81548160ff0219169083151502179055507f62e78cea01bee320cd4e420270b5ea74000d11b0c9f74754ebdbfc544b05a258610d92610901565b604051610d9f9190611539565b60405180910390a1565b610db68383836001610dbb565b505050565b600073ffffffffffffffffffffffffffffffffffffffff168473ffffffffffffffffffffffffffffffffffffffff1603610e2d5760006040517fe602df05000000000000000000000000000000000000000000000000000000008152600401610e249190611539565b60405180910390fd5b600073ffffffffffffffffffffffffffffffffffffffff168373ffffffffffffffffffffffffffffffffffffffff1603610e9f5760006040517f94280d62000000000000000000000000000000000000000000000000000000008152600401610e969190611539565b60405180910390fd5b81600160008673ffffffffffffffffffffffffffffffffffffffff1673ffffffffffffffffffffffffffffffffffffffff16815260200190815260200160002060008573ffffffffffffffffffffffffffffffffffffffff1673ffffffffffffffffffffffffffffffffffffffff168152602001908152602001600020819055508015610f8c578273ffffffffffffffffffffffffffffffffffffffff168473ffffffffffffffffffffffffffffffffffffffff167f8c5be1e5ebec7d5bd14f71427d1e84f3dd0314c0f7b2291e5b200ac8c7c3b92584604051610f83919061142b565b60405180910390a35b50505050565b610fa6673ee9beebe3b5d77160c01b61089a565b610fba672ef74927df14c1ef60c01b61089a565b610fce67b81a8eaba4f013dc60c01b61089a565b610fd983838361101e565b505050565b610fe66105a5565b61101c576040517f8dfc202b00000000000000000000000000000000000000000000000000000000815260040160405180910390fd5b565b61102661089d565b611031838383611036565b505050565b600073ffffffffffffffffffffffffffffffffffffffff168373ffffffffffffffffffffffffffffffffffffffff160361108857806002600082825461107c919061165a565b9250508190555061115b565b60008060008573ffffffffffffffffffffffffffffffffffffffff1673ffffffffffffffffffffffffffffffffffffffff16815260200190815260200160002054905081811015611114578381836040517fe450d38c00000000000000000000000000000000000000000000000000000000815260040161110b939291906115f4565b60405180910390fd5b8181036000808673ffffffffffffffffffffffffffffffffffffffff1673ffffffffffffffffffffffffffffffffffffffff16815260200190815260200160002081905550505b600073ffffffffffffffffffffffffffffffffffffffff168273ffffffffffffffffffffffffffffffffffffffff16036111a457806002600082825403925050819055506111f1565b806000808473ffffffffffffffffffffffffffffffffffffffff1673ffffffffffffffffffffffffffffffffffffffff168152602001908152602001600020600082825401925050819055505b8173ffffffffffffffffffffffffffffffffffffffff168373ffffffffffffffffffffffffffffffffffffffff167fddf252ad1be2c89b69c2b068fc378daa952ba7f163c4a11628f55a4df523b3ef8360405161124e919061142b565b60405180910390a3505050565b600081519050919050565b600082825260208201905092915050565b60005b8381101561129557808201518184015260208101905061127a565b60008484015250505050565b6000601f19601f8301169050919050565b60006112bd8261125b565b6112c78185611266565b93506112d7818560208601611277565b6112e0816112a1565b840191505092915050565b6000602082019050818103600083015261130581846112b2565b905092915050565b600080fd5b600073ffffffffffffffffffffffffffffffffffffffff82169050919050565b600061133d82611312565b9050919050565b61134d81611332565b811461135857600080fd5b50565b60008135905061136a81611344565b92915050565b6000819050919050565b61138381611370565b811461138e57600080fd5b50565b6000813590506113a08161137a565b92915050565b600080604083850312156113bd576113bc61130d565b5b60006113cb8582860161135b565b92505060206113dc85828601611391565b9150509250929050565b60008115159050919050565b6113fb816113e6565b82525050565b600060208201905061141660008301846113f2565b92915050565b61142581611370565b82525050565b6000602082019050611440600083018461141c565b92915050565b60008060006060848603121561145f5761145e61130d565b5b600061146d8682870161135b565b935050602061147e8682870161135b565b925050604061148f86828701611391565b9150509250925092565b600060ff82169050919050565b6114af81611499565b82525050565b60006020820190506114ca60008301846114a6565b92915050565b6000602082840312156114e6576114e561130d565b5b60006114f484828501611391565b91505092915050565b6000602082840312156115135761151261130d565b5b60006115218482850161135b565b91505092915050565b61153381611332565b82525050565b600060208201905061154e600083018461152a565b92915050565b6000806040838503121561156b5761156a61130d565b5b60006115798582860161135b565b925050602061158a8582860161135b565b9150509250929050565b7f4e487b7100000000000000000000000000000000000000000000000000000000600052602260045260246000fd5b600060028204905060018216806115db57607f821691505b6020821081036115ee576115ed611594565b5b50919050565b6000606082019050611609600083018661152a565b611616602083018561141c565b611623604083018461141c565b949350505050565b7f4e487b7100000000000000000000000000000000000000000000000000000000600052601160045260246000fd5b600061166582611370565b915061167083611370565b92508282019050808211156116885761168761162b565b5b9291505056fea2646970667358221220c37bab985c2903cc29e54a22cdc862d5732afd5a61c3819acfbe0db9e5de74d864736f6c63430008140033",
  "linkReferences": {},
  "deployedLinkReferences": {}
}